:020000040800F2
:10000000700A0020CD0100087B0D0008790C000863
:10001000790D000829030008510F000800000000B6
:100020000000000000000000000000001B0E00089F
:100030002B03000800000000190E00081D0E000828
:10004000E7010008E7010008E7010008E7010008F0
:10005000E7010008E7010008E7010008E7010008E0
:10006000E7010008E7010008E7010008E7010008D0
:10007000E7010008E7010008E7010008E7010008C0
:10008000E7010008E7010008E7010008E7010008B0
:10009000E7010008E7010008E7010008E7010008A0
:1000A000E7010008E7010008E7010008E701000890
:1000B000E7010008E7010008E7010008E701000880
:1000C000E7010008E7010008E7010008E701000870
:1000D000E7010008E7010008E7010008E701000860
:1000E000E7010008E7010008E7010008E701000850
:1000F000E7010008E7010008E7010008E701000840
:10010000E7010008E7010008E7010008E70100082F
:10011000E7010008E7010008E7010008E70100081F
:10012000E7010008E7010008E7010008E70100080F
:1001300000F002F800F03AF80AA090E8000C8244BF
:100140008344AAF10107DA4501D100F02FF8AFF29C
:10015000090EBAE80F0013F0010F18BFFB1A43F0A5
:1001600001031847C81E0000E81E0000103A24BF13
:1001700078C878C1FAD8520724BF30C830C144BF0C
:1001800004680C607047000000230024002500264E
:10019000103A28BF78C1FBD8520728BF30C148BFEA
:1001A0000B6070471FB51FBD10B510BD00F082F881
:1001B0001146FFF7F7FF00F033FF00F0A0F803B49B
:1001C000FFF7F2FF03BC00F0A9F8000009488047E0
:1001D00009480047FEE7FEE7FEE7FEE7FEE7FEE729
:1001E000FEE7FEE7FEE7FEE704480549054A064B41
:1001F000704700007F0E00083101000870040020E5
:10020000700A0020700600207006002002F0FF0334
:1002100043EA032242EA024200F002B84FF0000231
:100220000429C0F0128010F0030C00F01B80CCF108
:10023000040CBCF1020F18BF00F8012BA8BF20F876
:10024000022BA1EB0C0100F00DB85FEAC17C24BFCA
:1002500000F8012B00F8012B48BF00F8012B704774
:100260004FF0000200B5134694469646203922BF4F
:10027000A0E80C50A0E80C50B1F12001BFF4F7AF9A
:10028000090728BFA0E80C5048BF0CC05DF804EB7C
:10029000890028BF40F8042B08BF704748BF20F8EA
:1002A000022B11F0804F18BF00F8012B70477047E8
:1002B00070477047754600F02BF8AE46050069465A
:1002C000534620F00700854618B020B5FFF78CFF95
:1002D000BDE820404FF000064FF000074FF0000847
:1002E0004FF0000B21F00701AC46ACE8C009ACE8C8
:1002F000C009ACE8C009ACE8C0098D46704710B52C
:100300000446AFF300802046BDE81040FFF757BF1A
:100310000048704710040020704700000149182071
:10032000ABBEFEE726000200FEE770472DE9F84F5E
:10033000203A0024DDF828B00F46064602F0FF0AF6
:100340007F2802D900268F1CFFB28020102B0DD0F1
:10035000082B52D12A4A02EBCA018246CDF800107E
:100360000098BBF1000F005D27D124E0254804EB85
:100370000A11BBF1000F405C01D1C043C0B28146FD
:10038000002507EB04088020E84010EA090F06EB7F
:10039000050008F0FF01C0B201D0012200E00022F8
:1003A00000F022FD6D1CEDB2082DECD3641CE4B20C
:1003B000102CDBD31DE0C043C0B28146002507EB03
:1003C000040800BF2AFA05F010EA090F06EB050041
:1003D00008F0FF01C0B201D0012200E0002200F0CD
:1003E00003FD6D1CEDB2082DECD3641CE4B2082CA7
:1003F000B6D3BDE8F84F00F0D3BCBDE8F88F0000DD
:100400003A100008321300082DE9F84F0024DDF8F7
:1004100028A01E46904689460546102B03D0082E7C
:1004200019D1062713E0082711E03346494628462C
:10043000CDF800A0FFF77AFFE819C5B2782D04D9EE
:1004400009EB0600002500F0FF09641CE4B218F86F
:100450000420002AE9D1BDE8F88F000070B50446F9
:1004600000F022F90546601C02D0044800780444DC
:1004700000F01AF9401BA042FAD370BD0000002022
:10048000034A1368084323F07F0303431360704754
:10049000000001400248016841F08001016070479E
:1004A000000001402DE9F84FDFF8C8910024A9F1C0
:1004B000040B23460F2709F1040AABF1040ED1E027
:1004C0000125A54006EA0502AA4276D1DFF8A8C1B7
:1004D0004E68A6EB0C0866452BD00DDC032E34D0FD
:1004E00005DC36B3012E19D0022E2FD11BE0112EC0
:1004F00016D0122E2AD119E0B8F5881F19D006DCC3
:10050000B8F5803F15D0B8F5801F1FD111E0B8F5C0
:10051000001F0ED0B8F5041F18D10AE0CB6815E013
:10052000CB681B1D12E0CB6808330FE0CB680C339F
:100530000CE08B682BB1012B4FF0080303D0456111
:1005400004E0042302E0056100E00023FF2A01D853
:10055000064601E000F104064FEA840501D9A5F141
:100560002005D6F8008007FA05FC28EA0C0803FAF3
:1005700005F548EA0508C6F800804D68ED0070D51D
:100580003E4DAE6946F00106AE61AD6924F003064A
:1005900005F0010500953A4D06EB050CDCF8085016
:1005A000A607360F07FA06F825EA0805DFF8D48013
:1005B000404503D14FF0000825E052E0DFF8C88045
:1005C000404502D14FF001081DE0DFF8C0804045F2
:1005D00002D14FF0020816E0DFF8B480404502D1A6
:1005E0004FF003080FE0DFF8AC80404502D14FF038
:1005F000040808E0DFF8A080404502D14FF005086C
:1006000001E04FF0060808FA06F848EA0508CCF8B9
:1006100008804D68D9F80060ED024D4601D51643BB
:1006200000E096432E604D68DAF80060AD02554652
:1006300001D5164300E096432E604D68DBF800605C
:10064000AD035D4601D5164300E096432E604D682C
:10065000DEF80060ED03754601D5164300E09643D1
:100660002E60641C0A681646E2407FF429AFBDE89C
:10067000F88F000008040140000011100010024033
:100680000000014000080140000C01400010014042
:100690000014014000180140001C01400AB1016132
:1006A00070470904FBE700000148806870470000BC
:1006B0000000002002488168027811448160704780
:1006C00000000020074810B5016841F010010160EA
:1006D000032000F05FF80F2000F006F800F024F887
:1006E000002010BD0020024070B50D4D04464FF4AF
:1006F0007A712878B1FBF0F00A490968B1FBF0F093
:1007000000F0A6FA48B9102C07D200222146501E4C
:1007100000F020F800206C6070BD012070BD00006A
:10072000000000200C000020094808B5816941F054
:1007300001018161816901F001010091C16941F00C
:100740008051C161C06900F08050009008BD000078
:1007500000100240F0B40E4B1B680C46C3F302239A
:10076000C3F10705042D00D90425191D072901D25D
:10077000002300E0DB1E012606FA05F1491E214098
:1007800099409E40761E16403143F0BC00F038BCC4
:100790000CED00E0064900F0070208684FF6FF0381
:1007A000184040EA0220034A1043086070470000E6
:1007B0000CED00E00000FA052DE9F0470F460500BA
:1007C00061D0434E306800F00700B84209D230686B
:1007D00020F0070038433060306800F00700B8426E
:1007E00051D128683B4C810712D5400703D560687A
:1007F00040F4E06060602878000703D5606840F44A
:10080000605060606068A96820F0F0000843606094
:100810002878C00728D06868012810D021680228ED
:1008200010D0890700292EDA616821F00301014305
:100830006160FFF739FF804641F288390DE0216899
:100840008903EFE78901EDE7FFF72EFFA0EB080131
:10085000494502D90320BDE8F0876068696800F067
:100860000C00B0EB810FEFD1306800F00700B84208
:100870000BD9306820F0070038433060306800F052
:100880000700B84201D00120E5E72878400705D5E8
:100890006068E96820F4E060084360602878000739
:1008A00006D56068296920F4605040EAC1006060A4
:1008B00000F018F86168084AC1F30311515CC840A0
:1008C0000649086006480068FFF70EFF0020C2E7EF
:1008D00000200240001002401C2000080C000020F4
:1008E000040000200E4A51680E4801F00C03042B4E
:1008F00011D0082B0FD10C48C1F38343C903C05C4E
:100900000AD55168084AC1F34041921E515C054A1C
:100910005043B0FBF1F07047044948437047000072
:100920000010024000127A000C20000800093D006F
:100930002DE9F84F040070D02078C04DC00749D091
:100940006868C0F38100012807D06868C0F381009F
:10095000022809D16868C00306D52868800339D504
:1009600060680028E7D035E06068B0F5803F0BD0C4
:1009700010B1B0F5A02F11D0286820F48030286085
:10098000286820F4802002E0286840F48030286045
:10099000606890B1FFF788FE06460AE0286840F4D8
:1009A00080202860F0E700BFFFF77EFE801B6428F0
:1009B00073D828688003F7D50CE0FFF775FE06466C
:1009C00005E000BFFFF770FE801B6428F0D82868A0
:1009D0008003F7D420789A4E80074FF001094FF03A
:1009E000000839D5686810F00C0F07D06868C0F3AC
:1009F0008100022809D16868C00306D428688007EE
:100A000014D52069012808D110E02069B0B1C6F8DA
:100A10000090FFF749FE074605E00AE1FFF744FEB4
:100A2000C01B0228C4D828688007F7D528686169E8
:100A300020F0F80040EAC10028600DE0C6F8008010
:100A4000FFF732FE074604E0FFF72EFEC01B022828
:100A500023D828688007F7D4207800072CD5794858
:100A6000A169D9B1C0F80090FFF71EFE074604E067
:100A7000FFF71AFEC01B02280FD8686A8007F7D557
:100A800071484FF4FA510068B0FBF1F0009000BFDC
:100A90000098411E0091FAD20EE080E0C0F800807C
:100AA000FFF702FE074604E0FFF7FEFDC01B022829
:100AB00075D8686A8007F7D42078400760D5E86960
:100AC0000027C00008D4E86940F08050E861E86978
:100AD000012700F0805000905C480168C90513D4DC
:100AE0000168834641F480710160FFF7DDFD8246B5
:100AF00006E000BFFFF7D8FDA0EB0A0064284ED83F
:100B0000DBF80000C005F5D5E06801280AD008B17F
:100B1000052813D0286A20F001002862286A20F0F6
:100B2000040002E0286A40F001002862E06841F217
:100B3000883B98B1FFF7B8FD82460BE0286A40F089
:100B400004002862EEE700BFFFF7AEFDA0EB0A014C
:100B500059455AD8286A8007F6D50CE0FFF7A4FD5E
:100B6000824605E0FFF7A0FDA0EB0A0159454CD8ED
:100B7000286A8007F6D41FB1E86920F08050E86148
:100B8000E06988B36968C1F38101022944D0022871
:100B9000C6F8608004D0FFF787FD044638E034E0F3
:100BA000FFF782FD074604E0FFF77EFDC01B022829
:100BB0002BD828688001F7D4206AB0F5803F05D192
:100BC0006868A16820F4003008436860D4E908012F
:100BD0000843696821F4741108436860C6F860909E
:100BE000FFF762FD044606E025E000BFFFF75CFD6D
:100BF000001B022809D828688001F7D51BE000BF38
:100C0000FFF752FD001B022802D90320BDE8F88F30
:100C100028688001F4D40EE00128F7D06868226AC1
:100C200000F48031914204D1616A00F4701088426E
:100C300001D00120EAE70020E8E7000000100240B0
:100C400000004242800442420C000020007000403C
:100C500010B5401EB0F1807F01D3012010BD4FF0D0
:100C6000E02460610F21601700F0CAF90020A06144
:100C700007202061002010BDFEE7000010B50B4CDE
:100C8000012240212046FFF709FD01228021204654
:100C9000FFF704FD002280212046FFF7FFFC2046DD
:100CA0000022BDE810404021FFF7F8BC000C0140D5
:100CB00010B5094C012240212046FFF7EFFC00222D
:100CC00080212046FFF7EAFC20460122BDE81040C3
:100CD0008021FFF7E3BC0000000C014010B5064C7A
:100CE000012240212046FFF7D9FC20460022BDE822
:100CF00010404021FFF7D2BC000C014030B585B058
:100D000000241B480094019402940394816941F0EB
:100D100020018161816901F020010491816941F024
:100D2000080181618069134D00F0080004900022E1
:100D300040212846FFF7B2FC402000900120CDE979
:100D400001040224694628460394FFF7ABFB802088
:100D5000CDE90004694628460394FFF7A3FB072169
:100D60001020FFF78DFBFFF795FB05B030BD0000AD
:100D700000100240000C0140FEE7FEE710B54FF402
:100D8000806120B1FF220548FFF740FA02E00348E6
:100D9000FFF744FABDE8104000F002B81000002050
:100DA00070B5104E0024002104F1B00000F02EF8C0
:100DB0000021022000F02AF80021102000F026F87F
:100DC0005FF0000505EBC4100121305C00F01EF857
:100DD0006D1CEDB2802DF5D3641CE4B2082CE2D377
:100DE00070BD00001000002030B501F007050123A0
:100DF000AB40054CC90800EBC111605C0AB1184357
:100E000000E09843605430BD10000020C0B209B12A
:100E100000F0DFB800F0C6B870477047FFF74ABC73
:100E200030B58FB028216846FFF71AFA14210AA8B6
:100E3000FFF716FA01210804CDE9001000240294FE
:100E400002250491CDE907504FF4E010099068465F
:100E5000FFF76EFD08B172B6FEE70F20CDE90A0577
:100E60004FF48060CDE90C4002210AA80E94FFF7F0
:100E7000A3FC002801D072B6FEE70FB030BD70476A
:100E800038B50124082312A2052100200094FFF7A1
:100E9000BBFA102316A2192100200094FFF7B4FA20
:100EA0004FF47A70FFF7DAFA082319A2052100201F
:100EB0000094FFF7A9FA10231DA219210020009425
:100EC000FFF7A2FABDE8384040F2DC50FFF7C6BA9F
:100ED0003678383A6162636465666768696A6B6C24
:100EE0006D6E6F707172737475767778797A0000B1
:100EF000387831363A6162636465666768696A6B3F
:100F00006C6D6E6F707172737475767778797A0024
:100F10003678383A4142434445464748494A4B4C63
:100F20004D4E4F505152535455565758595A000030
:100F3000387831363A4142434445464748494A4B5E
:100F40004C4D4E4F505152535455565758595A00C4
:100F5000FEE7000070B5124E0446002240213046E4
:100F6000FFF79CFB5FF0000504F08000802815D09F
:100F7000002280213046FFF791FB6006040E01221B
:100F800040213046FFF78AFB002240213046FFF720
:100F900085FB6D1CEDB2082DE6D370BD0122E8E79C
:100FA000000C014010B50446FFF768FE7820FFF7FB
:100FB000D1FFFFF793FE0020FFF7CCFFFFF78EFE77
:100FC0002046FFF7C7FFFFF789FEBDE81040FFF797
:100FD0006FBE10B50446FFF751FE7820FFF7BAFF49
:100FE000FFF77CFE4020FFF7B5FFFFF777FE2046B6
:100FF000FFF7B0FFFFF772FEBDE81040FFF758BEE5
:101000000907090E002804DB00F1E02080F8001435
:10101000704700F00F0000F1E02080F8141D7047C9
:10102000FFF750FBFFF7FCFE0020FFF7A7FEFFF7DE
:1010300065FE00BFFFF724FFFCE700000000000092
:1010400000001010101000100000282828000000D8
:10105000000028287C287C282800103C5038147870
:101060001000004C2C10086060003048502054489C
:101070003400301020000000000008102020201054
:1010800008002010080808102000001054385410E0
:1010900000000010107C101000000000000000187C
:1010A0000810000000007C0000000000000000307C
:1010B0003000000408102040000038444C546444C0
:1010C0003800103010101010380038440408102078
:1010D0007C007C08100804443800081828487C0864
:1010E00008007C40780404443800182040784444C8
:1010F00038007C0408102020200038444438444440
:1011000038003844443C04083000003030003030AF
:101110000000003030003010200008102040201067
:10112000080000007C007C0000002010080408106B
:1011300020003844040810001000384404345C4493
:101140003800102844447C444400784444784444A3
:101150007800384440404044380070484444444893
:1011600070007C40407840407C007C4040784040AB
:1011700040003844405C44443C004444447C444483
:10118000440038101010101038001C0808080848D7
:101190003000444850605048440040404040404087
:1011A0007C00446C545444444400444464544C44CF
:1011B000440038444444444438007844447840402F
:1011C00040003844444454483400784444785048FB
:1011D00044003C404038040478007C10101010108B
:1011E00010004444444444443800444444444428A3
:1011F00010004444445454542800444428102844C3
:10120000440044444428101010007C04081020407E
:101210007C003820202020203800004020100804C6
:1012200000003808080808083800102844000000AA
:1012300000000000000000007C00201008000000FA
:101240000000000038043C443C00404058644444E2
:10125000780000003840404438000404344C4444D2
:101260003C00000038447C403800382420702020A6
:10127000200000003C44443C04384040586444444E
:10128000440010003010101038000800180808083A
:101290004830404048506050480030101010101046
:1012A000380000006854544444000000586444442A
:1012B0004400000038444444380000005864645836
:1012C00040400000344C4C3404040000586440405A
:1012D000400000003C40380478002020702020248A
:1012E000180000004444444C3400000044444428A6
:1012F00010000000444454542800000044281028E2
:10130000440000004444443C043800007C081020A1
:101310007C00102020402020100000101010101021
:1013200010002010100810102000000000205408A9
:1013300000000000000000000000000000000000AD
:1013400000000000001818181818181800001818C5
:1013500000000012362448000000000000000000D9
:101360000000000000242424FE484848FE48484865
:10137000000000001038545450301C1414545438D9
:10138000101000000044A4A8A8A8541A2A2A2A442D
:10139000000000000030484848506EA494888976C8
:1013A000000000606020C00000000000000000009D
:1013B00000000002040808101010101010080804A3
:1013C000020000402010100808080808081010202B
:1013D0004000000000001010D63838D61010000071
:1013E00000000000000010101010FE10101010007F
:1013F000000000000000000000000000000060602D
:1014000020C000000000000000007F00000000007D
:10141000000000000000000000000000000060600C
:1014200000000000010202040408081010202040FF
:101430004000000000182442424242424242241826
:101440000000000000107010101010101010107C20
:1014500000000000003C4242420404081020427E8A
:1014600000000000003C42420418040202424438DA
:101470000000000000040C14242444447E04041ED4
:1014800000000000007E40404058640202424438A0
:1014900000000000001C24404058644242422418CE
:1014A00000000000007E42440808101010101010C8
:1014B00000000000003C4242422418244242423CC8
:1014C00000000000001824424242261A020224387A
:1014D00000000000000000001818000000001818AC
:1014E0000000000000000000181800000018180894
:1014F0003000000000020408102040201008040200
:101500000000000000000000FE000000FE000000DF
:1015100000000000004020100804020408102040D1
:1015200000000000003C4242620204080800181853
:10153000000000000038445AAAAAAAAAB4424438BB
:1015400000000000001010182828243C444242E704
:101550000000000000F8444444784442424244F809
:1015600000000000003E424280808080804244387B
:101570000000000000F8444242424242424244F825
:101580000000000000FE424848784848404242FEC1
:101590000000000000FE424848784848404040E0D3
:1015A00000000000003C44448080808E8444443825
:1015B0000000000000E7424242427E42424242E7CF
:1015C00000000000007C1010101010101010107C93
:1015D00000000000003E080808080808080808087D
:1015E00088F0000000EE444850705048484444EEF3
:1015F0000000000000E0404040404040404042FECB
:101600000000000000EE6C6C6C6C5454545454D6C2
:101610000000000000C7626252524A4A4A4646E24F
:101620000000000000384482828282828282443834
:101630000000000000FC424242427C40404040E04A
:10164000000000000038448282828282B2CA4C3894
:101650000600000000F8444444784848444442E30B
:1016600000000000003E4242402018040242427C3A
:101670000000000000FE9210101010101010103822
:101680000000000000E74242424242424242423CE5
:101690000000000000E742424424242828181010CB
:1016A0000000000000D692929292AAAA6C44444490
:1016B0000000000000E7422424181818242442E700
:1016C0000000000000EE44442828101010101038CC
:1016D00000000000007E840408081020204242FC24
:1016E0000000001E1010101010101010101010101C
:1016F0001E000000404020201010080404020202D6
:1017000001010078080808080808080808080808FF
:101710007800000814220000000000000000000013
:1017200000000000000000000000000000000000B9
:1017300000FF00601000000000000000000000003A
:101740000000000000000000003C421E2242423F18
:101750000000000000C040404058644242426458CB
:101760000000000000000000001C22404040221C3D
:101770000000000000060202021E22424242261B16
:101780000000000000000000003C427E4040423C5F
:1017900000000000000F1110107E10101010107CBF
:1017A0000000000000000000003E444438403C427D
:1017B000423C000000C04040405C6242424242E77E
:1017C0000000000000303000007010101010107C7D
:1017D00000000000000C0C00001C040404040404BD
:1017E0004478000000C04040404E4850684844EEF5
:1017F0000000000000701010101010101010107C6D
:10180000000000000000000000F64949494949ED88
:10181000000000000000000000DC6242424242E79B
:101820000000000000000000003C42424242423CF6
:10183000000000000000000000D8644242426458EA
:1018400040E0000000000000001E22424242261A32
:10185000020700000000000000EE3220202020F8E7
:101860000000000000000000003E42403C02427CBC
:101870000000000000000010107C10101010100C70
:10188000000000000000000000C642424242463B09
:10189000000000000000000000E74224242810108F
:1018A000000000000000000000D79292AAAA444461
:1018B0000000000000000000006E241818182476B4
:1018C000000000000000000000E742242428181057
:1018D00010E0000000000000007E44081010227E8E
:1018E00000000003040404040408040404040404C1
:1018F0000300080808080808080808080808080875
:1019000008080060101010101008101010101010AF
:10191000600000000000000020520C0000000000E9
:101920000000C8AB01000100028004400820101034
:101930002FE8C106010001001FF0010001000100B5
:101940007FFC0000B6AF004000407C40004001FC3E
:101950000044FE4420442044208448844484FD0400
:10196000450402280410B5E70100010001003FF81A
:101970002108210821083FF82108210821083FF803
:10198000210A0102010200FED7D300007FF80010F7
:101990000020004001800100FFFE01000100010065
:1019A00001000100010005000200BCBC1020102055
:1019B000102013FEFC201020102015FC1884308805
:1019C000D04810501020105051882606CAF501004A
:1019D0000120011001107FFC038005400540092013
:1019E0001110210841048102010001000100CFB55E
:1019F00000F83F000400082010403F80010006105E
:101A000018087FFC01040920111021084504020078
:101A1000CDB310401020202023FE4840F888110448
:101A200023FE4092F890409000901912E112420E6D
:101A30000400C9E8000021F0111011100110020E7D
:101A4000F40013F811081110109014A0184010A001
:101A500003180C06D6C37FFC44447FFC01007FFCC6
:101A600001001FF010101FF010101FF010101FF0D9
:101A70001010FFFE0000D2F4020001003FF8000049
:101A800008200440FFFE00001FF0101010101FF08F
:101A9000101010101FF01010C1BF00001FF0101028
:101AA0001FF01010FFFE00001FF011101FF01110AA
:101AB0001FF001001FF001007FFCD1D5100008FECF
:101AC0007F102220147C7F44445448545254445480
:101AD000485451544228442488423082C9AB0800FB
:101AE00008001FE020204040BFF8210821082108FD
:101AF0003FF820002002200220021FFE0000CDF847
:101B000000007FFC40044004421452944A54442490
:101B100044244A544A5452946104400440144008F6
:101B2000C2E71080108020F821084B10FCA0104064
:101B300020A04118FA0645F801081908E10841F803
:101B40000108C8AB000000000000003800003000B1
:101B500000680000440000C2000181000300C006CC
:101B600000700FFFFE101808601800001800001821
:101B70000000186003FF8000180000180000180023
:101B80000018081FFFFC000000000000B6AF0000B6
:101B9000000000000001800001000061003F8100A2
:101BA00000010000010C0007FC00310C3FC10C06D5
:101BB000010C04010C0C8108084308106208102273
:101BC000082FF4083814080008080011180020F83D
:101BD000004030000000B5E70000000000000018E1
:101BE000000010000010000010000FFFF00810208F
:101BF0000810200810200810200FFFE0081020080F
:101C000010200810200810200FFFE008100000101E
:101C10000800100800100400180C000FF800000065
:101C2000D7D30000000000000000200FFFF00000EC
:101C3000600000800003000014000018000018007D
:101C400000180C7FFFFE00180000180000180000AC
:101C500018000018000018000018000018000018F4
:101C60000000F800003000000000BCBC00000004D0
:101C7000000007018006010006010006010006C100
:101C80000C3F3FF006010006010006010006FFF8C8
:101C90000708103E083026042006046006024006AD
:101CA00002C0060180060380060C601E103E0CE098
:101CB0000C000000CAF5000000000000001C00003D
:101CC00019800018E000186000182800181C3FFF59
:101CD000E0003C00007C00005A0000DA000099009F
:101CE0000119800318C006186004183808181E303F
:101CF0001808401800001800001800000000C8ABC9
:101D0000000000000000000000030000000380004D
:101D10000007800000068000000C4000001C20002E
:101D2000001830000030180000600C0000C00700F0
:101D3000018003C0030002F807FFFF7C08018090C8
:101D4000300180004001800000018000000181001E
:101D50000001838001FFFFC00001800000018000BE
:101D6000000180000001800000018000000180105F
:101D7000000180381FFFFFFC000000000000000091
:101D8000B6AF0000000000000000000008000000E6
:101D90000E0000000C00000C0C003FFE0C001000B8
:101DA0000C0000000C0000000C180000FFFC0002FA
:101DB0000C1800070C183FFF8C1801C00C1801C04C
:101DC0000C180180081803000818021018180608DB
:101DD0001818040C101808061018100630102FFBE5
:101DE00020103E0360101002C0300000803000015F
:101DF0000C30000203E0000C01E000100080000045
:101E00000000B5E700000000000000000003000033
:101E10000003800000030000000300000003000036
:101E20000003000007FFFFC0060300C0060300C058
:101E3000060300C0060300C0060300C0060300C07E
:101E400007FFFFC0060300C0060300C0060300C072
:101E5000060300C0060300C007FFFFC006030080A2
:101E60000603000000030010000300080003000840
:101E7000000300180003801C0001FFF800000000B0
:101E800000000000D7D300000000000000000000A8
:101E90000000000000C003FFFFE0000001E00000C0
:101EA00003000000060000001800000030000001E0
:101EB000C0000001C000000180000001801000018E
:101EC00080383FFFFFFC000180000001800000011E
:101ED00080000001800000018000000180000001FE
:101EE00080000001800000018000000180000001EE
:101EF000800000018000003F800000070000000219
:101F0000000000000000BCBC000000000000000059
:101F10000180080001C00E0001800C0001800C004F
:101F200001800C0001800C0001980C183FFFFFFCA1
:101F300001800C0001800C0001800C0001800C006D
:101F4000018C0C2001B3FFF001C080600F80806025
:101F50003D8040C0318040C00180218001802180CF
:101F60000180330001801E0001800C0001801E00F2
:101F7000018037000180E3C01F8380F8078E007C5A
:101F80000230000000000000CAF500000000000060
:101F90000000000100000001C00000018C000001F1
:101FA00087000001838000018180000180800001A2
:101FB00080303FFFFFF81003C0000007C00000079B
:101FC000A000000DA000000D900000199000001965
:101FD000980000318C000061860000C187000081FC
:101FE0008380018181C0030180F00401807C0801AD
:101FF0008038100180106001800000018000000125
:10200000800000010000000000000102020304053E
:10201000060708090A0B0C0D0E0F10100000000037
:102020000000000001020304060708094C20000814
:1020300000000020100000006C0100085C20000877
:1020400010000020600A0000880100080100000064
:0C20500010000000000000000024F4005C
:0400000508000131BD
:00000001FF
