:020000040800F2
:10000000D8070020DD0100088B19000899180008A6
:1000100089190008810B0008211C0008000000005D
:10002000000000000000000000000000DF1A0008CF
:10003000830B0008000000008D190008E11A000879
:10004000F7010008F7010008F7010008F7010008B0
:10005000F7010008F7010008F7010008F7010008A0
:10006000F7010008F7010008F7010008F701000890
:10007000F7010008F7010008F7010008F701000880
:10008000F7010008F7010008F7010008F701000870
:10009000F7010008F7010008F7010008F701000860
:1000A000F7010008F7010008F7010008F701000850
:1000B000F7010008F7010008F7010008F701000840
:1000C000F7010008F7010008F7010008F701000830
:1000D000F7010008F7010008F7010008F701000820
:1000E000F7010008F7010008F7010008F701000810
:1000F000F7010008F7010008F7010008F701000800
:10010000F7010008F7010008F7010008F7010008EF
:10011000F7010008F7010008F7010008F7010008DF
:10012000F7010008F7010008F7010008F7010008CF
:1001300000F002F800F042F80AA090E8000C8244B7
:100140008344AAF10107DA4501D100F037F8AFF294
:10015000090EBAE80F0013F0010F18BFFB1A43F0A5
:1001600001031847601B0000801B0000103A24BFE9
:1001700078C878C1FAD8520724BF30C830C144BF0C
:1001800004680C607047000000230024002500264E
:10019000103A28BF78C1FBD8520728BF30C148BFEA
:1001A0000B6070471FB59DE8030000F0BBFA00F03C
:1001B00099F81FBD10B500F0FEF810BD00F061F910
:1001C0001146FFF7EFFF01F047FD00F079FA03B4A5
:1001D000FFF7F0FF03BC00F037FC00000948804740
:1001E00009480047FEE7FEE7FEE7FEE7FEE7FEE719
:1001F000FEE7FEE7FEE7FEE704480549054A064B31
:1002000070470000651B000831010008D80100207C
:10021000D8070020D8030020D80300200FB40449D9
:1002200010B503AA029800F02FF810BC5DF814FB7B
:10023000CC0000204FF0000200B5134694469646CD
:10024000203922BFA0E80C50A0E80C50B1F12001E9
:10025000BFF4F7AF090728BFA0E80C5048BF0CC097
:100260005DF804EB890028BF40F8042B08BF7047F5
:1002700048BF20F8022B11F0804F18BF00F8012B67
:100280007047704770477047074B70B50D467B4409
:1002900000F011F80446284600F020F810B14FF0A5
:1002A000FF3070BD204670BDB319000001694A1CC3
:1002B00002610878704700B58FB0CDE901310021A7
:1002C000059105497944CDE903101146684600F0CF
:1002D00024F90FB000BD0000E5FFFFFF007B00F038
:1002E0008000704710B542485421FFF7A3FF4148F2
:1002F0005421FFF79FFF40485421FFF79BFF3F49E0
:100300003B483C4A3F4B08603D490A603A49196006
:10031000531C0365481C1065012008653B48344A9E
:1003200039A1784400F030F920B9384878440A38C7
:1003300000F0CFF937482F4A35A1784400F024F96E
:1003400020B9344878440A3800F0C3F932482A4AC0
:100350002FA1784400F018F920B92F4878440A38C2
:1003600000F0B7F940232248DC000021224600F0CB
:10037000E8F820B125487844543800F0AAF91D481F
:1003800022464023002100F0DCF820B121487844C7
:10039000543800F09EF9184822461023002100F03E
:1003A000D0F8002806D01C487844BDE810405638E4
:1003B00000F08FB910BD104870B5006D20F0010439
:1003C0000B4800F057F90B4800F054F90A4800F0C8
:1003D00051F909E0206D20F00105204600F04AF9AE
:1003E000204600F073F82C46002CF3D170BD0000BD
:1003F00078000020CC000020200100201000002008
:100400001400002018000020720000009219000063
:10041000770000007E1900006A1900000EB5CDE9D2
:10042000000100F0F1FA029069460120ABBE0EBD5A
:1004300008B5694600900220ABBE08BD1FB58DE827
:10044000070069460520ABBE04B010BD1FB58DE89E
:100450000F0069460620ABBEF6E708B56946009076
:100460000920ABBE08BD1CB5CDE9000169460A20D4
:10047000ABBE1CBD704708B5694600900C20ABBEF2
:1004800008BD754600F02CF9AE4605006946534696
:1004900020F00700854618B020B5FFF7ADFEBDE897
:1004A00020404FF000064FF000074FF000084FF0DB
:1004B000000B21F00701AC46ACE8C009ACE8C0096C
:1004C000ACE8C009ACE8C0098D46704770B5044679
:1004D000051F00F00BF90068002C14BF446870BDC4
:1004E000002C18BFAC423CBF20466468F8D30168BA
:1004F0000A18AA4218BF456003D12A68054611446C
:10050000016028684119A1421CBF6C6070BD616820
:10051000696021680844286070BD2DE9F0410646F5
:100520000024D6E90170F5688046304603E0414674
:10053000B847641C3046A8470028F8D12046BDE8DB
:10054000F08170B5C468A50713D0650211D4B2F567
:10055000807F09D0B2F5007F06D0B2F5806F08D158
:10056000012300F1240106E05D1E6FF07F46B542D5
:1005700001D3012070BD0161C361416024F4706149
:100580001143C160002070BD2DE9F0410C460746C3
:100590001646104600F06EF82078611C61280AD0DB
:1005A000722802D077283CD102E00125002405E022
:1005B0000225042402E0082448F2020511F8010B88
:1005C0002B2806D0622809D011F8010C74280AD013
:1005D0000BE045F0030544F00204EFE745F00405A5
:1005E00044F00104EAE744F0100438462146FFF7DE
:1005F00015FF411C15D00021316171604FF400716D
:10060000F560F1617061200704D5304602220021B7
:1006100000F0E6F8306D40F0010030653046BDE88E
:10062000F0810020FBE72DE9F0410D460646104C15
:10063000206DC10704D0410804D020F00104F7E781
:1006400022460EE0542000F09CF807000ED0206DEA
:1006500047F001010843542120653846FFF7EAFDC1
:100660003A4629463046BDE8F0418DE70020D6E7FE
:10067000780000202DE9F04704464FF000094FF0C4
:10068000FF37C568D4E90486A80707D0204600F0E4
:1006900057F93046FFF7CCFE002802DA3846BDE8AD
:1006A000F087280502D54046FFF710FF4C21204671
:1006B000FFF7C0FD206D20F0010020654846EEE701
:1006C00010B50446AFF300802046BDE81040FFF7A8
:1006D0007EBD10B500F07EF9BDE8104000F074B9A1
:1006E00000487047740100207047000000487047C0
:1006F0007C010020704770477047704738B504464A
:100700000A4600206946AFF30080002808BF38BDC4
:1007100002460099204600F0A4F9012038BD0120CE
:1007200000F0F3B9F8B5AFF30080054600200C46A1
:10073000102000BF0646A819A0420DD932466946CE
:100740000020AFF30080070008BF00F0DEF900983A
:10075000A04218BF0546C419FFF7C8FF0560074649
:10076000F01D20F007004619284600F073F9B44246
:1007700008BFF8BDA21B31463868BDE8F84000F05C
:1007800070B970B50646FFF7B1FF056806F10B00BA
:1007900020F00704B4429CBF002070BD2B466A685D
:1007A000BAB11068A04210D304F1080188423CBFDE
:1007B0005068586007D35168101941601168091BCF
:1007C000016058601460101D70BD13465268002A05
:1007D000E7D121462846FFF791FF0028DED170BD02
:1007E0002DE9F041044616460D464769007B800717
:1007F0002ED03846FFF731FE50BB3EB3012E02D05B
:10080000022E25D104E0204600F045F905441DE004
:100810003846FFF730FEE168002841F01001E16042
:1008200005DA204600F058F80120BDE8F081C90340
:100830000BD56268E16A914200D81146A269114461
:100840002269891A814200DD08460544002D01DA3B
:100850000220EAE7E16A6068E268814206D2910319
:10086000E06203D522F4003141F01002A6690027AE
:10087000AE4213DCE16A814201D90B4600E0034637
:1008800003EB060C2369ACEB030CAC4506DD81429F
:1008900001D98C4600E084469C4505D1A7602760BD
:1008A00042F02000A5620DE0AD1BE669AE1B81425F
:1008B000A66000D90846C01A281A2060581960603E
:1008C00022F0200003490840E060002084F84870CE
:1008D000ABE70000BFCFD7FFC16821F4001141F0A2
:1008E0008001C16000218160016070472DE9F047FF
:1008F000814614460E464FF0FF383248D568576996
:10090000054209D03846A169FFF7ADFD002811DB8B
:100910002C48C0430540E5602B46324649463846E0
:10092000FFF78CFDA16920F00042B21A11440028A3
:10093000A16103D02046FFF7CFFF4046BDE8F08716
:1009400070B504460569C06A6168884200D80846E7
:10095000E16821F42011E160C90312D5A84208D052
:100960002246411B2846FFF7C1FF10B14FF0FF3070
:1009700070BD0020E562C4E90150E06820F48030D9
:10098000E060002070BD10B50446C06820F0200073
:10099000E060A16AA06988420DD02046FFF7D0FF31
:1009A000E06820F4405040F01000E060A06AA061D0
:1009B0002069E062606044F24001E0688843E060E2
:1009C00010BD000010000200002801D000F03CB86B
:1009D0007047000010B5014602A000F07DF801202C
:1009E00010BD000053494752545245443A205265C5
:1009F0006469726563743A2063616E2774206F7056
:100A0000656E3A200000000010B5431C02E010F8AB
:100A1000011B71B18107FAD14FF0013202C88C1A63
:100A20008C4314EAC211F9D0C01A0A0603D0C01EC2
:100A300010BDC01A10BD0A0401D0801E10BD0902ED
:100A4000FCD0401E10BD000001491820ABBEFEE7DF
:100A50002600020000210160C0E90110704710204B
:100A60007047034640688C46002818BF88423CBF48
:100A700003464068F8D318681844884207D00CF140
:100A8000030020F00700001D411A521A0146081DFC
:100A90000A60FFF71BBD10B50146C268900703D07E
:100AA000900607D5886A0AE000F03EF8012101604F
:100AB000881E10BD8B69486818440B69C01A91F8EC
:100AC00048301BB191F84910401A10BD1103FCD5F4
:100AD0000028FADD401E10BD70B505460C460A2000
:100AE00000E06D1C00F018F835B128780028F8D126
:100AF00002E0641C00F010F814B120780028F8D14E
:100B0000BDE870400A2000F007B810B500F010F8FA
:100B1000BDE81040FFF758BF08B569468DF80000E2
:100B20000320ABBE08BD00000048704774010020E0
:100B300010B5012805D0002103A0FFF7CDFF01204B
:100B400010BD09A1F8E7000053494752544D454DE7
:100B50003A204F7574206F662068656170206D655E
:100B60006D6F7279000000003A2048656170206D59
:100B7000656D6F727920636F727275707465640051
:100B8000FEE7704772B6FEE72DE9F84FDFF8C8912F
:100B90000024A9F1040B23460F2709F1040AABF145
:100BA000040ED1E00125A54006EA0502AA4276D14D
:100BB000DFF8A8C14E68A6EB0C0866452BD00DDC0B
:100BC000032E34D005DC36B3012E19D0022E2FD1DE
:100BD0001BE0112E16D0122E2AD119E0B8F5881F6D
:100BE00019D006DCB8F5803F15D0B8F5801F1FD1AD
:100BF00011E0B8F5001F0ED0B8F5041F18D10AE0B7
:100C0000CB6815E0CB681B1D12E0CB6808330FE002
:100C1000CB680C330CE08B682BB1012B4FF0080331
:100C200003D0456104E0042302E0056100E00023F5
:100C3000FF2A01D8064601E000F104064FEA8405C8
:100C400001D9A5F12005D6F8008007FA05FC28EAAD
:100C50000C0803FA05F548EA0508C6F800804D6857
:100C6000ED0070D53E4DAE6946F00106AE61AD694E
:100C700024F0030605F0010500953A4D06EB050C3E
:100C8000DCF80850A607360F07FA06F825EA08052B
:100C9000DFF8D480404503D14FF0000825E052E052
:100CA000DFF8C880404502D14FF001081DE0DFF8B1
:100CB000C080404502D14FF0020816E0DFF8B48052
:100CC000404502D14FF003080FE0DFF8AC8040450B
:100CD00002D14FF0040808E0DFF8A080404502D1BF
:100CE0004FF0050801E04FF0060808FA06F848EA58
:100CF0000508CCF808804D68D9F80060ED024D4633
:100D000001D5164300E096432E604D68DAF8006086
:100D1000AD02554601D5164300E096432E604D685E
:100D2000DBF80060AD035D4601D5164300E0964355
:100D30002E604D68DEF80060ED03754601D5164360
:100D400000E096432E60641C0A681646E2407FF479
:100D500029AFBDE8F88F0000080401400000111021
:100D6000001002400000014000080140000C01405A
:100D7000001001400014014000180140001C014017
:100D80000148806870470000000000200248816828
:100D9000027811448160704700000020074810B5B8
:100DA000016841F010010160032000F067F80F2096
:100DB00000F006F800F024F8002010BD00200240EA
:100DC00070B50D4D04464FF47A712878B1FBF0F000
:100DD0000A490968B1FBF0F000F0DFFC48B9102CBB
:100DE00007D200222146501E00F028F800206C6037
:100DF00070BD012070BD0000000000200C0000202C
:100E00000C4808B5816941F001018161816901F0F7
:100E100001010091C16941F08051C161C06900F0D8
:100E2000805000900448416821F0E06141F0007179
:100E3000416008BD0010024000000140F0B40E4BBC
:100E40001B680C46C3F30223C3F10705042D00D928
:100E50000425191D072901D2002300E0DB1E01260D
:100E600006FA05F1491E214099409E40761E164023
:100E70003143F0BC00F0D5BE0CED00E0064900F0B7
:100E8000070208684FF6FF03184040EA0220034AB1
:100E900010430860704700000CED00E00000FA0508
:100EA000014901200862704700000E4210B501465A
:100EB0000020284C04292FD00BDC012930D0022936
:100EC00029D100F06BF96168C1F38131491C4900F7
:100ED0001FE0082920D010291DD161682268D201A5
:100EE00019D51D48C1F38342C903805C0AD56168E6
:100EF000194AC1F34041921E515C184AB2FBF1F10C
:100F0000484301E0164948436168490203D4400060
:100F10000321B0FBF1F010BDBDE8104000F04EB968
:100F2000226AC2F30121012903D1920701D5C80326
:100F300010BD022905D1626A920702D549F64040E8
:100F400010BD0329FCD121688903F9D54FF2244053
:100F500010BD000000100240901C000800127A0032
:100F600000093D002DE9F84305460078354CC007DF
:100F700054D0E0690026C00008D4E06940F08050F9
:100F8000E061E069012600F0805000902E48016881
:100F9000C90512D40168804641F480710160FFF7F1
:100FA000EFFE074605E000BFFFF7EAFEC01B64281E
:100FB00023D8D8F80000C005F6D5206A10F4407098
:100FC00021D0A98801F4407181421CD0206A1F49B8
:100FD000012220F440700A6000220A602062C007EB
:100FE00011D0FFF7CDFE074641F2883808E000BF78
:100FF000FFF7C6FEC11B414502D90320BDE8F883B7
:10100000206A8007F4D5206A696820F4407008439C
:1010100020621EB1E06920F08050E06128788007EE
:1010200005D56068A96820F44040084360602878CE
:10103000C00605D56068696920F4800008436060D7
:101040000020DBE7001002400070004040044242F4
:101050002DE9F0470F46050061D0434E306800F09F
:101060000700B84209D2306820F0070038433060EA
:10107000306800F00700B84251D128683B4C810726
:1010800012D5400703D5606840F4E06060602878BE
:10109000000703D5606840F4605060606068A9682C
:1010A00020F0F000084360602878C00728D0686806
:1010B000012810D02168022810D0890700292EDAD3
:1010C000616821F0030101436160FFF759FE80462A
:1010D00041F288390DE021688903EFE78901EDE7E6
:1010E000FFF74EFEA0EB0801494502D90320BDE8F9
:1010F000F0876068696800F00C00B0EB810FEFD1F9
:10110000306800F00700B8420BD9306820F00700C3
:1011100038433060306800F00700B84201D0012049
:10112000E5E72878400705D56068E96820F4E060C5
:10113000084360602878000706D56068296920F4B4
:10114000605040EAC100606000F038F86168084A09
:10115000C1F30311515CC8400649086006480068A5
:10116000FFF72EFE0020C2E70020024000100240E0
:10117000A01C00080C0000200400002004480549C1
:1011800000684968044AC1F30221515CC8407047B5
:101190000C00002000100240B01C00080448054963
:1011A00000684968044AC1F3C221515CC8407047D5
:1011B0000C00002000100240B01C00080E4A5168CC
:1011C0000E4801F00C03042B11D0082B0FD10C4852
:1011D000C1F38343C903C05C0AD55168084AC1F30F
:1011E0004041921E515C054A5043B0FBF1F07047FC
:1011F00004494843704700000010024000127A0082
:101200007E1C000800093D002DE9F84F040070D055
:101210002078C04DC00749D06868C0F3810001281C
:1012200007D06868C0F38100022809D16868C0034C
:1012300006D52868800339D560680028E7D035E0F6
:101240006068B0F5803F0BD010B1B0F5A02F11D081
:10125000286820F480302860286820F4802002E08C
:10126000286840F480302860606890B1FFF788FDFE
:1012700006460AE0286840F480202860F0E700BFB6
:10128000FFF77EFD801B642873D828688003F7D59C
:101290000CE0FFF775FD064605E000BFFFF770FDA7
:1012A000801B6428F0D828688003F7D420789A4EF1
:1012B00080074FF001094FF0000839D5686810F039
:1012C0000C0F07D06868C0F38100022809D1686854
:1012D000C00306D42868800714D52069012808D1E6
:1012E00010E02069B0B1C6F80090FFF749FD07464D
:1012F00005E00AE1FFF744FDC01B0228C4D82868B6
:101300008007F7D52868616920F0F80040EAC1003D
:1013100028600DE0C6F80080FFF732FD074604E0C4
:10132000FFF72EFDC01B022823D828688007F7D4BA
:10133000207800072CD57948A169D9B1C0F8009070
:10134000FFF71EFD074604E0FFF71AFDC01B022849
:101350000FD8686A8007F7D571484FF4FA510068D2
:10136000B0FBF1F0009000BF0098411E0091FAD24E
:101370000EE080E0C0F80080FFF702FD074604E0C1
:10138000FFF7FEFCC01B022875D8686A8007F7D4F7
:101390002078400760D5E8690027C00008D4E869D4
:1013A00040F08050E861E869012700F0805000902B
:1013B0005C480168C90513D40168834641F4807113
:1013C0000160FFF7DDFC824606E000BFFFF7D8FCB6
:1013D000A0EB0A0064284ED8DBF80000C005F5D564
:1013E000E06801280AD008B1052813D0286A20F047
:1013F00001002862286A20F0040002E0286A40F018
:1014000001002862E06841F2883B98B1FFF7B8FC20
:1014100082460BE0286A40F004002862EEE700BF35
:10142000FFF7AEFCA0EB0A0159455AD8286A80079D
:10143000F6D50CE0FFF7A4FC824605E0FFF7A0FC20
:10144000A0EB0A0159454CD8286A8007F6D41FB191
:10145000E86920F08050E861E06988B36968C1F309
:101460008101022944D00228C6F8608004D0FFF729
:1014700087FC044638E034E0FFF782FC074604E0CE
:10148000FFF77EFCC01B02282BD828688001F7D408
:10149000206AB0F5803F05D16868A16820F400306B
:1014A00008436860D4E908010843696821F47411AD
:1014B00008436860C6F86090FFF762FC044606E0E7
:1014C00025E000BFFFF75CFC001B022809D8286854
:1014D0008001F7D51BE000BFFFF752FC001B02287C
:1014E00002D90320BDE8F88F28688001F4D40EE00B
:1014F0000128F7D06868226A00F48031914204D153
:10150000616A00F47010884201D00120EAE70020EF
:10151000E8E700000010024000004242800442421E
:101520000C0000200070004070B5040003D0607C07
:10153000002610B105E0012070BD2674204600F0A1
:101540003DF802206074204600F00AF9042550BBE3
:10155000204600F025FA30BB2068416821F00701E1
:101560004160A06820B11448016821F001010160C8
:101570001148001F0168A26821F4607111430160E5
:101580006068411C04D10120FFF790FC58B1401E57
:101590002268C0F303419160216880B2C860204690
:1015A00000F018FA08B16574C5E7E67301206073AE
:1015B000A0736074002070BD306C004008B50068F6
:1015C000084988420DD1FFF76BFC0748C16941F01B
:1015D0000061C161C069054900F000600090012010
:1015E000086008BD00280040001002403C04424250
:1015F0002DE9F0410D4604003BD0C5B3207C012805
:101600003AD04FF0010884F8108002206074E87826
:1016100072B300F0BCF9E073687800F0B8F9607359
:10162000A87800F0B4F9A073C2B2617BE07B00F04F
:1016300003FA20732870204600F0EEF94FF4616140
:10164000B0FBF1F1002518292DD91822B1FBF2F1D8
:10165000A1EB011101EB4101C1EB011100EBC1163E
:101660003146204600F027FA0427C8B90BE000E015
:1016700004E00120BDE8F0810220FBE7E073687818
:101680006073A878CFE7204600F0BFF9411C0AD06C
:10169000B04208D206490144204600F0F8F910B1E2
:1016A00067742574E5E784F8118025740020E1E76C
:1016B000805101002DE9F0410D46040024D01DB3F6
:1016C000207C012823D04FF0010884F810800220EC
:1016D00060742878EAB100F05AF94FF4616100FBB8
:1016E00001F6687800F053F9C0EB001006EB8006B5
:1016F000A87800F04CF935182946204600F0DBF9AF
:101700000026042710BB0FE00120BDE8F081022075
:10171000FBE74FF4616148436978C1EB011100EBCD
:101720008100A9784518E7E72068416821F00501A4
:101730004160204600F069F9411C0AD0A84208D255
:1017400006490144204600F0A2F910B167742674DE
:10175000DAE784F8118026740020D6E78051010072
:1017600070B504000AD02068416821F0080141608A
:10177000FFF706FB05464FF47A7608E0012070BDBE
:10178000FFF7FEFA401BB04201D9032070BD20686C
:1017900040680007F4D5002070BD10B5401EB0F1C0
:1017A000807F01D3012010BD4FF0E02460610F2144
:1017B000601700F036FA0020A061072020610020A9
:1017C00010BD70B5040004D094F84100002510B19C
:1017D00006E0012070BD84F84050204600F024F857
:1017E000242084F841002068C16821F40051C160C0
:1017F000204600F0B9F92068016921F490410161A7
:101800002068416921F02A0141612068C16841F4E2
:101810000051C1606564202084F8410084F84200D2
:101820006563002070BD000030B585B000240094D1
:1018300001940294039400681449884224D1144806
:10184000816941F480418161816901F480410491A1
:10185000816941F00401816180690E4D00F004004E
:1018600004904FF400700090022001900320039038
:1018700069462846FFF788F92815CDE9000469462E
:1018800028460294FFF780F905B030BD00380140CA
:101890000010024000080140FEE700000D4808B5B6
:1018A000816941F010018161816901F010010091AD
:1018B000816941F020018161816901F0200100917D
:1018C000816941F004018161806900F004000090A9
:1018D00008BD0000001002401CB5002001900090DF
:1018E0001A48194901604FF0FF3141604FF480718F
:1018F0008160FFF719FE08B1FFF744F912208DF857
:1019000004008DF8050002208DF80600012201A9CF
:101910000E48FFF7CFFE08B1FFF734F901208DF82C
:1019200000008DF8010007208DF8020023208DF8BB
:101930000300012269460548FFF75AFE002801D03E
:10194000FFF720F91CBD0000002800401C0000200B
:101950000C4810B50A4901604FF4E13141600021A3
:1019600081600C22C160C0E904128161C161FFF78E
:1019700028FF002803D0BDE81040FFF703B910BDD1
:101980000038014030000020FEE7FEE77047010903
:1019900001EB810100F00F0000EB4100C0B2704785
:1019A00070B50446FFF7ECF905464FF47A7606E089
:1019B000FFF7E6F9401BB04201D9032070BD206853
:1019C00040688006F4D52068416841F0100141600C
:1019D000002070BD70B504460068416821F0100118
:1019E0004160FFF7CDF905464FF47A7607E000BF76
:1019F000FFF7C6F9401BB04201D9032070BD206833
:101A000040688006F4D5002070BD0168086A496A04
:101A100089B241EA00407047006881698AB2C169B1
:101A20008BB2816989B28A4203D0C06961F31F40D9
:101A3000704743EA02407047F0B56424C1EBC1032C
:101A40000927A500072603EB01130329B3FBF7F1D0
:101A500000F5FA60114401440AD2401EB0FBF4F2D2
:101A600001EB9001B0FBF5F0891A0844001D08E075
:101A7000B0FBF4F201EB9001B0FBF5F0891A0844D9
:101A8000801CB0FBF6F106FB1100C0B2F0BD70B5D2
:101A90000D4606460024FFF783FF48B93168280C3D
:101AA00008623168A8B248623046FFF793FF00B180
:101AB0000124204670BD70B50D4606460024FFF790
:101AC0006FFF48B93168280C88613168A8B2C861D5
:101AD0003046FFF77FFF00B10124204670BD7047FC
:101AE000FFF754B970B596B028216846FEF7A2FBFF
:101AF00014210AA8FEF79EFB18210FA8FEF79AFBF7
:101B00000124052000250090CDE902544FF48030D7
:101B1000019002260494CDE907604FF4E01009908B
:101B20006846FFF771FB08B172B6FEE70F20CDE9FA
:101B30000A064FF48060CDE90C5002210AA80E95E8
:101B4000FFF786FA08B172B6FEE74FF48070CDE970
:101B50000F400FA8FFF706FA002801D072B6FEE783
:101B600016B070BD7047000070B50446006801698A
:101B7000E26821F44051114301612169A0680843E2
:101B8000616908432168CA6841F20C639A430243C1
:101B9000CA6020684169A26921F440711143416122
:101BA0001E492068884202D1FFF7F8FA01E0FFF7EA
:101BB000E5FA00EBC00101EB0012606864218000CF
:101BC000B2FBF0F3B3FBF1F36FF018067343B2FB13
:101BD000F0F5B2FBF0F605EB8305322303EB0515B8
:101BE000B5FBF1F5B6FBF1F605F0F00505EB0615D2
:101BF000B2FBF0F6B2FBF0F0B0FBF1F06FF01802C0
:101C0000504306EB800003EB0010B0FBF1F02168BD
:101C100000F00F002844886070BD000000380140CB
:101C2000FEE70907090E002804DB00F1E02080F838
:101C30000014704700F00F0000F1E02080F8141D40
:101C40007047000003490A685206FCD50149091D86
:101C50000860704700380140FFF7A0F8FFF742FF27
:101C6000FFF71CFEFFF738FEFFF772FE01A0FEF73C
:101C7000D5FAFEE7436875616E00000001020203B9
:101C80000405060708090A0B0C0D0E0F10100102BF
:101C900002030405060708090A0B0C0D0E0F1010AD
:101CA000000000000000000001020304060708090C
:101CB00000000000010203043A7474003A747400D6
:101CC0003A747400E41C0008000000201C000000AE
:101CD0006C010008001D00081C000020BC0700006B
:101CE0008801000801000000100000000000000052
:101CF0000024F400000000000000000000000000CC
:0400000508000131BD
:00000001FF
